{
  "contractName": "OrderBook",
  "abi": [
    {
      "inputs": [
        {
          "internalType": "contract ACoin",
          "name": "_acoin",
          "type": "address"
        },
        {
          "internalType": "contract NCoin",
          "name": "_ncoin",
          "type": "address"
        }
      ],
      "payable": false,
      "stateMutability": "nonpayable",
      "type": "constructor"
    },
    {
      "constant": true,
      "inputs": [
        {
          "internalType": "uint256",
          "name": "_id",
          "type": "uint256"
        }
      ],
      "name": "orderExist",
      "outputs": [
        {
          "internalType": "bool",
          "name": "",
          "type": "bool"
        }
      ],
      "payable": false,
      "stateMutability": "view",
      "type": "function"
    },
    {
      "constant": true,
      "inputs": [
        {
          "internalType": "uint256",
          "name": "_id",
          "type": "uint256"
        }
      ],
      "name": "getOrder",
      "outputs": [
        {
          "components": [
            {
              "internalType": "uint256",
              "name": "id",
              "type": "uint256"
            },
            {
              "internalType": "enum OrderBook.OrderType",
              "name": "orderType",
              "type": "uint8"
            },
            {
              "internalType": "uint256",
              "name": "exchange",
              "type": "uint256"
            },
            {
              "internalType": "uint256",
              "name": "amount",
              "type": "uint256"
            },
            {
              "internalType": "enum OrderBook.Coin",
              "name": "fromCoin",
              "type": "uint8"
            },
            {
              "internalType": "enum OrderBook.Coin",
              "name": "toCoin",
              "type": "uint8"
            },
            {
              "internalType": "address",
              "name": "owner",
              "type": "address"
            }
          ],
          "internalType": "struct OrderBook.Order",
          "name": "",
          "type": "tuple"
        }
      ],
      "payable": false,
      "stateMutability": "view",
      "type": "function"
    },
    {
      "constant": true,
      "inputs": [],
      "name": "getOrders",
      "outputs": [
        {
          "components": [
            {
              "internalType": "uint256",
              "name": "id",
              "type": "uint256"
            },
            {
              "internalType": "enum OrderBook.OrderType",
              "name": "orderType",
              "type": "uint8"
            },
            {
              "internalType": "uint256",
              "name": "exchange",
              "type": "uint256"
            },
            {
              "internalType": "uint256",
              "name": "amount",
              "type": "uint256"
            },
            {
              "internalType": "enum OrderBook.Coin",
              "name": "fromCoin",
              "type": "uint8"
            },
            {
              "internalType": "enum OrderBook.Coin",
              "name": "toCoin",
              "type": "uint8"
            },
            {
              "internalType": "address",
              "name": "owner",
              "type": "address"
            }
          ],
          "internalType": "struct OrderBook.Order[]",
          "name": "",
          "type": "tuple[]"
        }
      ],
      "payable": false,
      "stateMutability": "view",
      "type": "function"
    },
    {
      "constant": false,
      "inputs": [
        {
          "internalType": "uint256",
          "name": "_id",
          "type": "uint256"
        },
        {
          "internalType": "enum OrderBook.OrderType",
          "name": "_orderType",
          "type": "uint8"
        },
        {
          "internalType": "uint256",
          "name": "_exchange",
          "type": "uint256"
        },
        {
          "internalType": "uint256",
          "name": "_amount",
          "type": "uint256"
        },
        {
          "internalType": "enum OrderBook.Coin",
          "name": "_from",
          "type": "uint8"
        },
        {
          "internalType": "enum OrderBook.Coin",
          "name": "_to",
          "type": "uint8"
        }
      ],
      "name": "addOrder",
      "outputs": [],
      "payable": true,
      "stateMutability": "payable",
      "type": "function"
    },
    {
      "constant": false,
      "inputs": [
        {
          "internalType": "uint256",
          "name": "_id",
          "type": "uint256"
        }
      ],
      "name": "completeOrder",
      "outputs": [],
      "payable": true,
      "stateMutability": "payable",
      "type": "function"
    }
  ],
  "bytecode": "0x60806040523480156200001157600080fd5b50604051620010163803806200101683398181016040526200003791908101906200012f565b816000806101000a81548173ffffffffffffffffffffffffffffffffffffffff021916908373ffffffffffffffffffffffffffffffffffffffff16021790555080600160006101000a81548173ffffffffffffffffffffffffffffffffffffffff021916908373ffffffffffffffffffffffffffffffffffffffff16021790555033600260006101000a81548173ffffffffffffffffffffffffffffffffffffffff021916908373ffffffffffffffffffffffffffffffffffffffff160217905550505062000200565b6000815190506200011281620001cc565b92915050565b6000815190506200012981620001e6565b92915050565b600080604083850312156200014357600080fd5b6000620001538582860162000101565b9250506020620001668582860162000118565b9150509250929050565b60006200017d82620001ac565b9050919050565b6000620001918262000170565b9050919050565b6000620001a58262000170565b9050919050565b600073ffffffffffffffffffffffffffffffffffffffff82169050919050565b620001d78162000184565b8114620001e357600080fd5b50565b620001f18162000198565b8114620001fd57600080fd5b50565b610e0680620002106000396000f3fe60806040526004361061004a5760003560e01c80632e2dc43e1461004f578063b4ad5d671461007a578063b6adaaff146100b7578063b729b287146100d3578063d09ef241146100ef575b600080fd5b34801561005b57600080fd5b5061006461012c565b6040516100719190610bcc565b60405180910390f35b34801561008657600080fd5b506100a1600480360361009c91908101906108ae565b610286565b6040516100ae9190610bee565b60405180910390f35b6100d160048036036100cc91908101906108ae565b6102e3565b005b6100ed60048036036100e891908101906108d7565b6103ae565b005b3480156100fb57600080fd5b50610116600480360361011191908101906108ae565b610605565b6040516101239190610c49565b60405180910390f35b60606003805480602002602001604051908101604052809291908181526020016000905b8282101561027d57838290600052602060002090600502016040518060e0016040529081600082015481526020016001820160009054906101000a900460ff16600181111561019b57fe5b60018111156101a657fe5b815260200160028201548152602001600382015481526020016004820160009054906101000a900460ff1660018111156101dc57fe5b60018111156101e757fe5b81526020016004820160019054906101000a900460ff16600181111561020957fe5b600181111561021457fe5b81526020016004820160029054906101000a900473ffffffffffffffffffffffffffffffffffffffff1673ffffffffffffffffffffffffffffffffffffffff1673ffffffffffffffffffffffffffffffffffffffff168152505081526020019060010190610150565b50505050905090565b600080600090505b6003805490508110156102d85782600382815481106102a957fe5b90600052602060002090600502016000015414156102cb5760019150506102de565b808060010191505061028e565b50600090505b919050565b3073ffffffffffffffffffffffffffffffffffffffff1663b4ad5d67826040518263ffffffff1660e01b815260040161031c9190610c64565b60206040518083038186803b15801561033457600080fd5b505afa158015610348573d6000803e3d6000fd5b505050506040513d601f19601f8201168201806040525061036c9190810190610885565b6103ab576040517f08c379a00000000000000000000000000000000000000000000000000000000081526004016103a290610c29565b60405180910390fd5b50565b3073ffffffffffffffffffffffffffffffffffffffff1663b4ad5d67876040518263ffffffff1660e01b81526004016103e79190610c64565b60206040518083038186803b1580156103ff57600080fd5b505afa158015610413573d6000803e3d6000fd5b505050506040513d601f19601f820116820180604052506104379190810190610885565b15610477576040517f08c379a000000000000000000000000000000000000000000000000000000000815260040161046e90610c09565b60405180910390fd5b61047f6107bd565b6040518060e0016040528088815260200187600181111561049c57fe5b81526020018681526020018581526020018460018111156104b957fe5b81526020018360018111156104ca57fe5b81526020013373ffffffffffffffffffffffffffffffffffffffff168152509050600381908060018154018082558091505090600182039060005260206000209060050201600090919290919091506000820151816000015560208201518160010160006101000a81548160ff0219169083600181111561054757fe5b0217905550604082015181600201556060820151816003015560808201518160040160006101000a81548160ff0219169083600181111561058457fe5b021790555060a08201518160040160016101000a81548160ff021916908360018111156105ad57fe5b021790555060c08201518160040160026101000a81548173ffffffffffffffffffffffffffffffffffffffff021916908373ffffffffffffffffffffffffffffffffffffffff16021790555050505050505050505050565b61060d6107bd565b60008090505b60038054905081101561077c57826003828154811061062e57fe5b906000526020600020906005020160000154141561076f576003818154811061065357fe5b90600052602060002090600502016040518060e0016040529081600082015481526020016001820160009054906101000a900460ff16600181111561069457fe5b600181111561069f57fe5b815260200160028201548152602001600382015481526020016004820160009054906101000a900460ff1660018111156106d557fe5b60018111156106e057fe5b81526020016004820160019054906101000a900460ff16600181111561070257fe5b600181111561070d57fe5b81526020016004820160029054906101000a900473ffffffffffffffffffffffffffffffffffffffff1673ffffffffffffffffffffffffffffffffffffffff1673ffffffffffffffffffffffffffffffffffffffff16815250509150506107b8565b8080600101915050610613565b506040517f08c379a00000000000000000000000000000000000000000000000000000000081526004016107af90610c29565b60405180910390fd5b919050565b6040518060e0016040528060008152602001600060018111156107dc57fe5b81526020016000815260200160008152602001600060018111156107fc57fe5b81526020016000600181111561080e57fe5b8152602001600073ffffffffffffffffffffffffffffffffffffffff1681525090565b60008151905061084081610d75565b92915050565b60008135905061085581610d8c565b92915050565b60008135905061086a81610d9c565b92915050565b60008135905061087f81610dac565b92915050565b60006020828403121561089757600080fd5b60006108a584828501610831565b91505092915050565b6000602082840312156108c057600080fd5b60006108ce84828501610870565b91505092915050565b60008060008060008060c087890312156108f057600080fd5b60006108fe89828a01610870565b965050602061090f89828a0161085b565b955050604061092089828a01610870565b945050606061093189828a01610870565b935050608061094289828a01610846565b92505060a061095389828a01610846565b9150509295509295509295565b600061096c8383610b20565b60e08301905092915050565b61098181610cc9565b82525050565b600061099282610c8f565b61099c8185610ca7565b93506109a783610c7f565b8060005b838110156109d85781516109bf8882610960565b97506109ca83610c9a565b9250506001810190506109ab565b5085935050505092915050565b6109ee81610cdb565b82525050565b6109fd81610d37565b82525050565b610a0c81610d49565b82525050565b6000610a1f601183610cb8565b91507f63757272656e74206964206578697374210000000000000000000000000000006000830152602082019050919050565b6000610a5f601583610cb8565b91507f63757272656e74206964206e6f742065786973742100000000000000000000006000830152602082019050919050565b60e082016000820151610aa86000850182610bae565b506020820151610abb6020850182610a03565b506040820151610ace6040850182610bae565b506060820151610ae16060850182610bae565b506080820151610af460808501826109f4565b5060a0820151610b0760a08501826109f4565b5060c0820151610b1a60c0850182610978565b50505050565b60e082016000820151610b366000850182610bae565b506020820151610b496020850182610a03565b506040820151610b5c6040850182610bae565b506060820151610b6f6060850182610bae565b506080820151610b8260808501826109f4565b5060a0820151610b9560a08501826109f4565b5060c0820151610ba860c0850182610978565b50505050565b610bb781610d2d565b82525050565b610bc681610d2d565b82525050565b60006020820190508181036000830152610be68184610987565b905092915050565b6000602082019050610c0360008301846109e5565b92915050565b60006020820190508181036000830152610c2281610a12565b9050919050565b60006020820190508181036000830152610c4281610a52565b9050919050565b600060e082019050610c5e6000830184610a92565b92915050565b6000602082019050610c796000830184610bbd565b92915050565b6000819050602082019050919050565b600081519050919050565b6000602082019050919050565b600082825260208201905092915050565b600082825260208201905092915050565b6000610cd482610d0d565b9050919050565b60008115159050919050565b6000819050610cf582610d5b565b919050565b6000819050610d0882610d68565b919050565b600073ffffffffffffffffffffffffffffffffffffffff82169050919050565b6000819050919050565b6000610d4282610ce7565b9050919050565b6000610d5482610cfa565b9050919050565b60028110610d6557fe5b50565b60028110610d7257fe5b50565b610d7e81610cdb565b8114610d8957600080fd5b50565b60028110610d9957600080fd5b50565b60028110610da957600080fd5b50565b610db581610d2d565b8114610dc057600080fd5b5056fea365627a7a723158207feae45f054d4d9da14e987df15817b7d46413a2467a628829849790ef5c57df6c6578706572696d656e74616cf564736f6c63430005100040",
  "source": "pragma solidity ^0.5.0;\npragma experimental ABIEncoderV2;\n\nimport \"./ACoin.sol\";\nimport \"./NCoin.sol\";\n\ncontract OrderBook {\n    ACoin acoin;\n    NCoin ncoin;\n    address owner;\n\n    enum Coin{A, N}\n    enum OrderType {Sell, Buy}\n\n    struct Order {\n        uint256 id;\n        OrderType orderType;\n        uint256 exchange;\n        uint256 amount;\n        Coin fromCoin;\n        Coin toCoin;\n        address owner;\n    }\n\n    Order[] orders;\n\n    constructor(ACoin _acoin, NCoin _ncoin) public {\n        acoin = _acoin;\n        ncoin = _ncoin;\n        owner = msg.sender;\n    }\n\n    function orderExist(uint256 _id) external view returns (bool)\n    {\n        for (uint256 i = 0; i < orders.length; i++) {\n            if (orders[i].id == _id) {\n                return true;\n            }\n        }\n        return false;\n    }\n\n    function getOrder(uint256 _id) external view returns (Order memory) {\n        for (uint256 i = 0; i < orders.length; i++) {\n            if (orders[i].id == _id) {\n                return orders[i];\n            }\n        }\n\n        revert(\"current id not exist!\");\n    }\n\n    function getOrders() external view returns (Order[] memory) {\n        return orders;\n    }\n\n    function addOrder(uint256 _id, OrderType _orderType, uint256 _exchange, uint256 _amount, Coin _from, Coin _to) external payable {\n        require(!this.orderExist(_id), \"current id exist!\");\n        Order memory order =\n            Order({\n                id: _id,\n                orderType: _orderType,\n                exchange: _exchange,\n                amount: _amount,\n                fromCoin: _from,\n                toCoin: _to,\n                owner: msg.sender\n            });\n        orders.push(order);\n    }\n\n    function completeOrder(uint256 _id) external payable {\n        require(this.orderExist(_id), \"current id not exist!\");\n\n    }\n}\n",
  "sourcePath": "/home/apo/work/innodex/src/contracts/OrderBook.sol",
  "compiler": {
    "name": "solc",
    "version": "0.5.16+commit.9c3226ce.Emscripten.clang"
  },
  "schemaVersion": "3.2.3",
  "updatedAt": "2021-05-11T08:36:45.906Z",
  "networkType": "ethereum",
  "devdoc": {
    "methods": {}
  },
  "userdoc": {
    "methods": {}
  }
}