{
  "contractName": "OrderBook",
  "abi": [
    {
      "inputs": [
        {
          "internalType": "contract ACoin",
          "name": "_acoin",
          "type": "address"
        },
        {
          "internalType": "contract NCoin",
          "name": "_ncoin",
          "type": "address"
        }
      ],
      "payable": false,
      "stateMutability": "nonpayable",
      "type": "constructor"
    },
    {
      "constant": true,
      "inputs": [
        {
          "internalType": "uint256",
          "name": "_id",
          "type": "uint256"
        }
      ],
      "name": "orderExist",
      "outputs": [
        {
          "internalType": "bool",
          "name": "",
          "type": "bool"
        }
      ],
      "payable": false,
      "stateMutability": "view",
      "type": "function"
    },
    {
      "constant": true,
      "inputs": [
        {
          "internalType": "uint256",
          "name": "_id",
          "type": "uint256"
        }
      ],
      "name": "getOrder",
      "outputs": [
        {
          "components": [
            {
              "internalType": "uint256",
              "name": "id",
              "type": "uint256"
            },
            {
              "internalType": "enum OrderBook.OrderType",
              "name": "orderType",
              "type": "uint8"
            },
            {
              "internalType": "uint256",
              "name": "exchange",
              "type": "uint256"
            },
            {
              "internalType": "uint256",
              "name": "amount",
              "type": "uint256"
            },
            {
              "internalType": "uint256",
              "name": "originalAmount",
              "type": "uint256"
            },
            {
              "internalType": "enum OrderBook.Coin",
              "name": "ownerGet",
              "type": "uint8"
            },
            {
              "internalType": "enum OrderBook.Coin",
              "name": "buyerGet",
              "type": "uint8"
            },
            {
              "internalType": "address",
              "name": "owner",
              "type": "address"
            },
            {
              "internalType": "bool",
              "name": "isClosed",
              "type": "bool"
            }
          ],
          "internalType": "struct OrderBook.Order",
          "name": "",
          "type": "tuple"
        }
      ],
      "payable": false,
      "stateMutability": "view",
      "type": "function"
    },
    {
      "constant": true,
      "inputs": [],
      "name": "getOrders",
      "outputs": [
        {
          "components": [
            {
              "internalType": "uint256",
              "name": "id",
              "type": "uint256"
            },
            {
              "internalType": "enum OrderBook.OrderType",
              "name": "orderType",
              "type": "uint8"
            },
            {
              "internalType": "uint256",
              "name": "exchange",
              "type": "uint256"
            },
            {
              "internalType": "uint256",
              "name": "amount",
              "type": "uint256"
            },
            {
              "internalType": "uint256",
              "name": "originalAmount",
              "type": "uint256"
            },
            {
              "internalType": "enum OrderBook.Coin",
              "name": "ownerGet",
              "type": "uint8"
            },
            {
              "internalType": "enum OrderBook.Coin",
              "name": "buyerGet",
              "type": "uint8"
            },
            {
              "internalType": "address",
              "name": "owner",
              "type": "address"
            },
            {
              "internalType": "bool",
              "name": "isClosed",
              "type": "bool"
            }
          ],
          "internalType": "struct OrderBook.Order[]",
          "name": "",
          "type": "tuple[]"
        }
      ],
      "payable": false,
      "stateMutability": "view",
      "type": "function"
    },
    {
      "constant": false,
      "inputs": [
        {
          "internalType": "uint256",
          "name": "_id",
          "type": "uint256"
        },
        {
          "internalType": "enum OrderBook.OrderType",
          "name": "_orderType",
          "type": "uint8"
        },
        {
          "internalType": "uint256",
          "name": "_exchange",
          "type": "uint256"
        },
        {
          "internalType": "uint256",
          "name": "_amount",
          "type": "uint256"
        },
        {
          "internalType": "enum OrderBook.Coin",
          "name": "_ownerGet",
          "type": "uint8"
        },
        {
          "internalType": "enum OrderBook.Coin",
          "name": "_buyerGet",
          "type": "uint8"
        }
      ],
      "name": "addOrder",
      "outputs": [],
      "payable": true,
      "stateMutability": "payable",
      "type": "function"
    },
    {
      "constant": false,
      "inputs": [
        {
          "internalType": "uint256",
          "name": "_id",
          "type": "uint256"
        },
        {
          "internalType": "uint256",
          "name": "_amount",
          "type": "uint256"
        }
      ],
      "name": "completeOrder",
      "outputs": [],
      "payable": true,
      "stateMutability": "payable",
      "type": "function"
    },
    {
      "constant": false,
      "inputs": [
        {
          "internalType": "uint256",
          "name": "_id",
          "type": "uint256"
        }
      ],
      "name": "closeOrder",
      "outputs": [],
      "payable": true,
      "stateMutability": "payable",
      "type": "function"
    }
  ],
  "bytecode": "0x60806040523480156200001157600080fd5b50604051620021c1380380620021c183398181016040526200003791908101906200012f565b816000806101000a81548173ffffffffffffffffffffffffffffffffffffffff021916908373ffffffffffffffffffffffffffffffffffffffff16021790555080600160006101000a81548173ffffffffffffffffffffffffffffffffffffffff021916908373ffffffffffffffffffffffffffffffffffffffff16021790555033600260006101000a81548173ffffffffffffffffffffffffffffffffffffffff021916908373ffffffffffffffffffffffffffffffffffffffff160217905550505062000200565b6000815190506200011281620001cc565b92915050565b6000815190506200012981620001e6565b92915050565b600080604083850312156200014357600080fd5b6000620001538582860162000101565b9250506020620001668582860162000118565b9150509250929050565b60006200017d82620001ac565b9050919050565b6000620001918262000170565b9050919050565b6000620001a58262000170565b9050919050565b600073ffffffffffffffffffffffffffffffffffffffff82169050919050565b620001d78162000184565b8114620001e357600080fd5b50565b620001f18162000198565b8114620001fd57600080fd5b50565b611fb180620002106000396000f3fe6080604052600436106100555760003560e01c8063069d6d1c1461005a5780632e2dc43e14610076578063b4ad5d67146100a1578063b729b287146100de578063c0d5d96f146100fa578063d09ef24114610116575b600080fd5b610074600480360361006f91908101906116d5565b610153565b005b34801561008257600080fd5b5061008b6102c5565b6040516100989190611c9c565b60405180910390f35b3480156100ad57600080fd5b506100c860048036036100c391908101906116d5565b610445565b6040516100d59190611cbe565b60405180910390f35b6100f860048036036100f39190810190611727565b6104a2565b005b610114600480360361010f91908101906117b0565b610734565b005b34801561012257600080fd5b5061013d600480360361013891908101906116d5565b61129b565b60405161014a9190611d79565b60405180910390f35b3073ffffffffffffffffffffffffffffffffffffffff1663b4ad5d67826040518263ffffffff1660e01b815260040161018c9190611d95565b60206040518083038186803b1580156101a457600080fd5b505afa1580156101b8573d6000803e3d6000fd5b505050506040513d601f19601f820116820180604052506101dc9190810190611682565b61021b576040517f08c379a000000000000000000000000000000000000000000000000000000000815260040161021290611cd9565b60405180910390fd5b610223611479565b3073ffffffffffffffffffffffffffffffffffffffff1663d09ef241836040518263ffffffff1660e01b815260040161025c9190611d95565b6101206040518083038186803b15801561027557600080fd5b505afa158015610289573d6000803e3d6000fd5b505050506040513d601f19601f820116820180604052506102ad91908101906116ab565b90506001816101000190151590811515815250505050565b60606003805480602002602001604051908101604052809291908181526020016000905b8282101561043c578382906000526020600020906006020160405180610120016040529081600082015481526020016001820160009054906101000a900460ff16600181111561033557fe5b600181111561034057fe5b81526020016002820154815260200160038201548152602001600482015481526020016005820160009054906101000a900460ff16600181111561038057fe5b600181111561038b57fe5b81526020016005820160019054906101000a900460ff1660018111156103ad57fe5b60018111156103b857fe5b81526020016005820160029054906101000a900473ffffffffffffffffffffffffffffffffffffffff1673ffffffffffffffffffffffffffffffffffffffff1673ffffffffffffffffffffffffffffffffffffffff1681526020016005820160169054906101000a900460ff161515151581525050815260200190600101906102e9565b50505050905090565b600080600090505b60038054905081101561049757826003828154811061046857fe5b906000526020600020906006020160000154141561048a57600191505061049d565b808060010191505061044d565b50600090505b919050565b3073ffffffffffffffffffffffffffffffffffffffff1663b4ad5d67876040518263ffffffff1660e01b81526004016104db9190611d95565b60206040518083038186803b1580156104f357600080fd5b505afa158015610507573d6000803e3d6000fd5b505050506040513d601f19601f8201168201806040525061052b9190810190611682565b1561056b576040517f08c379a000000000000000000000000000000000000000000000000000000000815260040161056290611cf9565b60405180910390fd5b610573611479565b60405180610120016040528088815260200187600181111561059157fe5b81526020018681526020018581526020018581526020018460018111156105b457fe5b81526020018360018111156105c557fe5b81526020013373ffffffffffffffffffffffffffffffffffffffff168152602001600015158152509050600381908060018154018082558091505090600182039060005260206000209060060201600090919290919091506000820151816000015560208201518160010160006101000a81548160ff0219169083600181111561064b57fe5b021790555060408201518160020155606082015181600301556080820151816004015560a08201518160050160006101000a81548160ff0219169083600181111561069257fe5b021790555060c08201518160050160016101000a81548160ff021916908360018111156106bb57fe5b021790555060e08201518160050160026101000a81548173ffffffffffffffffffffffffffffffffffffffff021916908373ffffffffffffffffffffffffffffffffffffffff1602179055506101008201518160050160166101000a81548160ff02191690831515021790555050505050505050505050565b3073ffffffffffffffffffffffffffffffffffffffff1663b4ad5d67836040518263ffffffff1660e01b815260040161076d9190611d95565b60206040518083038186803b15801561078557600080fd5b505afa158015610799573d6000803e3d6000fd5b505050506040513d601f19601f820116820180604052506107bd9190810190611682565b6107fc576040517f08c379a00000000000000000000000000000000000000000000000000000000081526004016107f390611cd9565b60405180910390fd5b610804611479565b3073ffffffffffffffffffffffffffffffffffffffff1663d09ef241846040518263ffffffff1660e01b815260040161083d9190611d95565b6101206040518083038186803b15801561085657600080fd5b505afa15801561086a573d6000803e3d6000fd5b505050506040513d601f19601f8201168201806040525061088e91908101906116ab565b9050806101000151156108d6576040517f08c379a00000000000000000000000000000000000000000000000000000000081526004016108cd90611d19565b60405180910390fd5b818160600151101561091d576040517f08c379a000000000000000000000000000000000000000000000000000000000815260040161091490611d39565b60405180910390fd5b6000816040015183029050600080600181111561093657fe5b8360c00151600181111561094657fe5b146109fb57600160009054906101000a900473ffffffffffffffffffffffffffffffffffffffff1673ffffffffffffffffffffffffffffffffffffffff166370a08231336040518263ffffffff1660e01b81526004016109a69190611b98565b60206040518083038186803b1580156109be57600080fd5b505afa1580156109d2573d6000803e3d6000fd5b505050506040513d601f19601f820116820180604052506109f691908101906116fe565b610aa6565b6000809054906101000a900473ffffffffffffffffffffffffffffffffffffffff1673ffffffffffffffffffffffffffffffffffffffff166370a08231336040518263ffffffff1660e01b8152600401610a559190611b98565b60206040518083038186803b158015610a6d57600080fd5b505afa158015610a81573d6000803e3d6000fd5b505050506040513d601f19601f82011682018060405250610aa591908101906116fe565b5b905080821115610aeb576040517f08c379a0000000000000000000000000000000000000000000000000000000008152600401610ae290611d59565b60405180910390fd5b8383606001818151039150818152505060006001811115610b0857fe5b8360c001516001811115610b1857fe5b1415610e9e576000809054906101000a900473ffffffffffffffffffffffffffffffffffffffff1673ffffffffffffffffffffffffffffffffffffffff1663dd62ed3e8460e00151306040518363ffffffff1660e01b8152600401610b7e929190611c13565b60206040518083038186803b158015610b9657600080fd5b505afa158015610baa573d6000803e3d6000fd5b505050506040513d601f19601f82011682018060405250610bce91908101906116fe565b506000809054906101000a900473ffffffffffffffffffffffffffffffffffffffff1673ffffffffffffffffffffffffffffffffffffffff166323b872dd8460e0015130876040518463ffffffff1660e01b8152600401610c3193929190611c3c565b602060405180830381600087803b158015610c4b57600080fd5b505af1158015610c5f573d6000803e3d6000fd5b505050506040513d601f19601f82011682018060405250610c839190810190611682565b506000809054906101000a900473ffffffffffffffffffffffffffffffffffffffff1673ffffffffffffffffffffffffffffffffffffffff1663a9059cbb33866040518363ffffffff1660e01b8152600401610ce0929190611bea565b602060405180830381600087803b158015610cfa57600080fd5b505af1158015610d0e573d6000803e3d6000fd5b505050506040513d601f19601f82011682018060405250610d329190810190611682565b50600160009054906101000a900473ffffffffffffffffffffffffffffffffffffffff1673ffffffffffffffffffffffffffffffffffffffff166323b872dd3330856040518463ffffffff1660e01b8152600401610d9293929190611bb3565b602060405180830381600087803b158015610dac57600080fd5b505af1158015610dc0573d6000803e3d6000fd5b505050506040513d601f19601f82011682018060405250610de49190810190611682565b50600160009054906101000a900473ffffffffffffffffffffffffffffffffffffffff1673ffffffffffffffffffffffffffffffffffffffff1663a9059cbb8460e00151846040518363ffffffff1660e01b8152600401610e46929190611c73565b602060405180830381600087803b158015610e6057600080fd5b505af1158015610e74573d6000803e3d6000fd5b505050506040513d601f19601f82011682018060405250610e989190810190611682565b5061121b565b600160009054906101000a900473ffffffffffffffffffffffffffffffffffffffff1673ffffffffffffffffffffffffffffffffffffffff1663dd62ed3e8460e00151306040518363ffffffff1660e01b8152600401610eff929190611c13565b60206040518083038186803b158015610f1757600080fd5b505afa158015610f2b573d6000803e3d6000fd5b505050506040513d601f19601f82011682018060405250610f4f91908101906116fe565b50600160009054906101000a900473ffffffffffffffffffffffffffffffffffffffff1673ffffffffffffffffffffffffffffffffffffffff166323b872dd8460e0015130876040518463ffffffff1660e01b8152600401610fb393929190611c3c565b602060405180830381600087803b158015610fcd57600080fd5b505af1158015610fe1573d6000803e3d6000fd5b505050506040513d601f19601f820116820180604052506110059190810190611682565b50600160009054906101000a900473ffffffffffffffffffffffffffffffffffffffff1673ffffffffffffffffffffffffffffffffffffffff1663a9059cbb33866040518363ffffffff1660e01b8152600401611063929190611bea565b602060405180830381600087803b15801561107d57600080fd5b505af1158015611091573d6000803e3d6000fd5b505050506040513d601f19601f820116820180604052506110b59190810190611682565b506000809054906101000a900473ffffffffffffffffffffffffffffffffffffffff1673ffffffffffffffffffffffffffffffffffffffff166323b872dd3330856040518463ffffffff1660e01b815260040161111493929190611bb3565b602060405180830381600087803b15801561112e57600080fd5b505af1158015611142573d6000803e3d6000fd5b505050506040513d601f19601f820116820180604052506111669190810190611682565b506000809054906101000a900473ffffffffffffffffffffffffffffffffffffffff1673ffffffffffffffffffffffffffffffffffffffff1663a9059cbb8460e00151846040518363ffffffff1660e01b81526004016111c7929190611c73565b602060405180830381600087803b1580156111e157600080fd5b505af11580156111f5573d6000803e3d6000fd5b505050506040513d601f19601f820116820180604052506112199190810190611682565b505b600083606001511415611294573073ffffffffffffffffffffffffffffffffffffffff1663069d6d1c866040518263ffffffff1660e01b81526004016112619190611d95565b600060405180830381600087803b15801561127b57600080fd5b505af115801561128f573d6000803e3d6000fd5b505050505b5050505050565b6112a3611479565b60008090505b6003805490508110156114385782600382815481106112c457fe5b906000526020600020906006020160000154141561142b57600381815481106112e957fe5b906000526020600020906006020160405180610120016040529081600082015481526020016001820160009054906101000a900460ff16600181111561132b57fe5b600181111561133657fe5b81526020016002820154815260200160038201548152602001600482015481526020016005820160009054906101000a900460ff16600181111561137657fe5b600181111561138157fe5b81526020016005820160019054906101000a900460ff1660018111156113a357fe5b60018111156113ae57fe5b81526020016005820160029054906101000a900473ffffffffffffffffffffffffffffffffffffffff1673ffffffffffffffffffffffffffffffffffffffff1673ffffffffffffffffffffffffffffffffffffffff1681526020016005820160169054906101000a900460ff161515151581525050915050611474565b80806001019150506112a9565b506040517f08c379a000000000000000000000000000000000000000000000000000000000815260040161146b90611cd9565b60405180910390fd5b919050565b604051806101200160405280600081526020016000600181111561149957fe5b8152602001600081526020016000815260200160008152602001600060018111156114c057fe5b8152602001600060018111156114d257fe5b8152602001600073ffffffffffffffffffffffffffffffffffffffff1681526020016000151581525090565b60008151905061150d81611f09565b92915050565b60008151905061152281611f20565b92915050565b60008135905061153781611f37565b92915050565b60008151905061154c81611f37565b92915050565b60008135905061156181611f47565b92915050565b60008151905061157681611f47565b92915050565b6000610120828403121561158f57600080fd5b61159a610120611db0565b905060006115aa8482850161166d565b60008301525060206115be84828501611567565b60208301525060406115d28482850161166d565b60408301525060606115e68482850161166d565b60608301525060806115fa8482850161166d565b60808301525060a061160e8482850161153d565b60a08301525060c06116228482850161153d565b60c08301525060e0611636848285016114fe565b60e08301525061010061164b84828501611513565b6101008301525092915050565b60008135905061166781611f57565b92915050565b60008151905061167c81611f57565b92915050565b60006020828403121561169457600080fd5b60006116a284828501611513565b91505092915050565b600061012082840312156116be57600080fd5b60006116cc8482850161157c565b91505092915050565b6000602082840312156116e757600080fd5b60006116f584828501611658565b91505092915050565b60006020828403121561171057600080fd5b600061171e8482850161166d565b91505092915050565b60008060008060008060c0878903121561174057600080fd5b600061174e89828a01611658565b965050602061175f89828a01611552565b955050604061177089828a01611658565b945050606061178189828a01611658565b935050608061179289828a01611528565b92505060a06117a389828a01611528565b9150509295509295509295565b600080604083850312156117c357600080fd5b60006117d185828601611658565b92505060206117e285828601611658565b9150509250929050565b60006117f88383611ac3565b6101208301905092915050565b61180e81611e95565b82525050565b61181d81611e27565b82525050565b61182c81611e27565b82525050565b600061183d82611ded565b6118478185611e05565b935061185283611ddd565b8060005b8381101561188357815161186a88826117ec565b975061187583611df8565b925050600181019050611856565b5085935050505092915050565b61189981611e39565b82525050565b6118a881611e39565b82525050565b6118b781611ea7565b82525050565b6118c681611eb9565b82525050565b60006118d9601383611e16565b91507f6f72646572206964206e6f7420657869737421000000000000000000000000006000830152602082019050919050565b6000611919600f83611e16565b91507f6f726465722069642065786973742100000000000000000000000000000000006000830152602082019050919050565b6000611959601583611e16565b91507f6f7264657220616c726561647920636c6f7365642100000000000000000000006000830152602082019050919050565b6000611999601a83611e16565b91507f6e6f7420656e6f75676820636f696e7320696e206f72646572210000000000006000830152602082019050919050565b60006119d9601b83611e16565b91507f6e6f7420656e6f7567687420636f696e7320696e2062757965722100000000006000830152602082019050919050565b61012082016000820151611a236000850182611b7a565b506020820151611a3660208501826118bd565b506040820151611a496040850182611b7a565b506060820151611a5c6060850182611b7a565b506080820151611a6f6080850182611b7a565b5060a0820151611a8260a08501826118ae565b5060c0820151611a9560c08501826118ae565b5060e0820151611aa860e0850182611814565b50610100820151611abd610100850182611890565b50505050565b61012082016000820151611ada6000850182611b7a565b506020820151611aed60208501826118bd565b506040820151611b006040850182611b7a565b506060820151611b136060850182611b7a565b506080820151611b266080850182611b7a565b5060a0820151611b3960a08501826118ae565b5060c0820151611b4c60c08501826118ae565b5060e0820151611b5f60e0850182611814565b50610100820151611b74610100850182611890565b50505050565b611b8381611e8b565b82525050565b611b9281611e8b565b82525050565b6000602082019050611bad6000830184611805565b92915050565b6000606082019050611bc86000830186611805565b611bd56020830185611823565b611be26040830184611b89565b949350505050565b6000604082019050611bff6000830185611805565b611c0c6020830184611b89565b9392505050565b6000604082019050611c286000830185611823565b611c356020830184611823565b9392505050565b6000606082019050611c516000830186611823565b611c5e6020830185611823565b611c6b6040830184611b89565b949350505050565b6000604082019050611c886000830185611823565b611c956020830184611b89565b9392505050565b60006020820190508181036000830152611cb68184611832565b905092915050565b6000602082019050611cd3600083018461189f565b92915050565b60006020820190508181036000830152611cf2816118cc565b9050919050565b60006020820190508181036000830152611d128161190c565b9050919050565b60006020820190508181036000830152611d328161194c565b9050919050565b60006020820190508181036000830152611d528161198c565b9050919050565b60006020820190508181036000830152611d72816119cc565b9050919050565b600061012082019050611d8f6000830184611a0c565b92915050565b6000602082019050611daa6000830184611b89565b92915050565b6000604051905081810181811067ffffffffffffffff82111715611dd357600080fd5b8060405250919050565b6000819050602082019050919050565b600081519050919050565b6000602082019050919050565b600082825260208201905092915050565b600082825260208201905092915050565b6000611e3282611e6b565b9050919050565b60008115159050919050565b6000819050611e5382611eef565b919050565b6000819050611e6682611efc565b919050565b600073ffffffffffffffffffffffffffffffffffffffff82169050919050565b6000819050919050565b6000611ea082611ecb565b9050919050565b6000611eb282611e45565b9050919050565b6000611ec482611e58565b9050919050565b6000611ed682611edd565b9050919050565b6000611ee882611e6b565b9050919050565b60028110611ef957fe5b50565b60028110611f0657fe5b50565b611f1281611e27565b8114611f1d57600080fd5b50565b611f2981611e39565b8114611f3457600080fd5b50565b60028110611f4457600080fd5b50565b60028110611f5457600080fd5b50565b611f6081611e8b565b8114611f6b57600080fd5b5056fea365627a7a723158206ecdf9d0d467738e95673d1b326ea8b9ecd9f529009b863698bc950eee4b2b626c6578706572696d656e74616cf564736f6c63430005100040",
  "source": "pragma solidity ^0.5.0;\npragma experimental ABIEncoderV2;\n\nimport './ACoin.sol';\nimport './NCoin.sol';\n\ncontract OrderBook {\n  ACoin acoin;\n  NCoin ncoin;\n  address owner;\n\n  enum Coin {A, N}\n  enum OrderType {Sell, Buy}\n\n  struct Order {\n    uint256 id;\n    OrderType orderType;\n    uint256 exchange;\n    uint256 amount;\n    uint256 originalAmount;\n    Coin ownerGet;\n    Coin buyerGet;\n    address owner;\n    bool isClosed;\n  }\n\n  Order[] orders;\n\n  constructor(ACoin _acoin, NCoin _ncoin) public {\n    acoin = _acoin;\n    ncoin = _ncoin;\n    owner = msg.sender;\n  }\n\n  function orderExist(uint256 _id) external view returns (bool) {\n    for (uint256 i = 0; i < orders.length; i++) {\n      if (orders[i].id == _id) {\n        return true;\n      }\n    }\n    return false;\n  }\n\n  function getOrder(uint256 _id) external view returns (Order memory) {\n    for (uint256 i = 0; i < orders.length; i++) {\n      if (orders[i].id == _id) {\n        return orders[i];\n      }\n    }\n\n    revert('order id not exist!');\n  }\n\n  function getOrders() external view returns (Order[] memory) {\n    return orders;\n  }\n\n  function addOrder(\n    uint256 _id,\n    OrderType _orderType,\n    uint256 _exchange,\n    uint256 _amount,\n    Coin _ownerGet,\n    Coin _buyerGet\n  ) external payable {\n    require(!this.orderExist(_id), 'order id exist!');\n    Order memory order =\n      Order({\n        id: _id,\n        orderType: _orderType,\n        exchange: _exchange,\n        amount: _amount,\n        originalAmount: _amount,\n        ownerGet: _ownerGet,\n        buyerGet: _buyerGet,\n        owner: msg.sender,\n        isClosed: false\n      });\n    orders.push(order);\n  }\n\n  function completeOrder(uint256 _id, uint256 _amount) external payable {\n    require(this.orderExist(_id), 'order id not exist!');\n\n    Order memory order = this.getOrder(_id);\n    require(!order.isClosed, 'order already closed!');\n    require(order.amount >= _amount, 'not enough coins in order!');\n\n    uint256 price = _amount * order.exchange;\n    uint256 wallet =\n      order.buyerGet == Coin.A\n        ? acoin.balanceOf(msg.sender)\n        : ncoin.balanceOf(msg.sender);\n    require(price <= wallet, 'not enought coins in buyer!');\n\n    order.amount -= _amount;\n    if (order.buyerGet == Coin.A) {\n      acoin.allowance(order.owner, address(this));\n      acoin.transferFrom(order.owner, address(this), _amount);\n      acoin.transfer(msg.sender, _amount);\n\n      ncoin.transferFrom(msg.sender, address(this), price);\n      ncoin.transfer(order.owner, price);\n    } else {\n      ncoin.allowance(order.owner, address(this));\n      ncoin.transferFrom(order.owner, address(this), _amount);\n      ncoin.transfer(msg.sender, _amount);\n\n      acoin.transferFrom(msg.sender, address(this), price);\n      acoin.transfer(order.owner, price);\n    }\n\n    if (order.amount == 0) {\n      this.closeOrder(_id);\n    }\n  }\n\n  function closeOrder(uint256 _id) external payable {\n    require(this.orderExist(_id), 'order id not exist!');\n    Order memory order = this.getOrder(_id);\n    order.isClosed = true;\n  }\n}\n",
  "sourcePath": "/Users/buldiga/Documents/study/innodex/src/contracts/OrderBook.sol",
  "compiler": {
    "name": "solc",
    "version": "0.5.16+commit.9c3226ce.Emscripten.clang"
  },
  "schemaVersion": "3.2.3",
  "updatedAt": "2021-05-11T15:23:49.665Z",
  "networkType": "ethereum",
  "devdoc": {
    "methods": {}
  },
  "userdoc": {
    "methods": {}
  }
}