{
  "contractName": "OrderBook",
  "abi": [
    {
      "inputs": [
        {
          "internalType": "contract ACoin",
          "name": "_acoin",
          "type": "address"
        },
        {
          "internalType": "contract NCoin",
          "name": "_ncoin",
          "type": "address"
        }
      ],
      "payable": false,
      "stateMutability": "nonpayable",
      "type": "constructor"
    },
    {
      "constant": true,
      "inputs": [],
      "name": "acoin",
      "outputs": [
        {
          "internalType": "contract ACoin",
          "name": "",
          "type": "address"
        }
      ],
      "payable": false,
      "stateMutability": "view",
      "type": "function"
    },
    {
      "constant": true,
      "inputs": [],
      "name": "ncoin",
      "outputs": [
        {
          "internalType": "contract NCoin",
          "name": "",
          "type": "address"
        }
      ],
      "payable": false,
      "stateMutability": "view",
      "type": "function"
    },
    {
      "constant": true,
      "inputs": [],
      "name": "owner",
      "outputs": [
        {
          "internalType": "address",
          "name": "",
          "type": "address"
        }
      ],
      "payable": false,
      "stateMutability": "view",
      "type": "function"
    }
  ],
  "bytecode": "0x608060405234801561001057600080fd5b506040516102eb3803806102eb8339818101604052604081101561003357600080fd5b810190808051906020019092919080519060200190929190505050816000806101000a81548173ffffffffffffffffffffffffffffffffffffffff021916908373ffffffffffffffffffffffffffffffffffffffff16021790555080600160006101000a81548173ffffffffffffffffffffffffffffffffffffffff021916908373ffffffffffffffffffffffffffffffffffffffff16021790555033600260006101000a81548173ffffffffffffffffffffffffffffffffffffffff021916908373ffffffffffffffffffffffffffffffffffffffff16021790555050506101ca806101216000396000f3fe608060405234801561001057600080fd5b50600436106100415760003560e01c80634ecf9478146100465780638da5cb5b14610090578063cc5983ef146100da575b600080fd5b61004e610124565b604051808273ffffffffffffffffffffffffffffffffffffffff1673ffffffffffffffffffffffffffffffffffffffff16815260200191505060405180910390f35b610098610149565b604051808273ffffffffffffffffffffffffffffffffffffffff1673ffffffffffffffffffffffffffffffffffffffff16815260200191505060405180910390f35b6100e261016f565b604051808273ffffffffffffffffffffffffffffffffffffffff1673ffffffffffffffffffffffffffffffffffffffff16815260200191505060405180910390f35b6000809054906101000a900473ffffffffffffffffffffffffffffffffffffffff1681565b600260009054906101000a900473ffffffffffffffffffffffffffffffffffffffff1681565b600160009054906101000a900473ffffffffffffffffffffffffffffffffffffffff168156fea265627a7a723158208b8e83102e6244291b156138e62f7a5cc9ccffca5cae496c673222cba13d5da964736f6c63430005100032",
  "source": "pragma solidity ^0.5.0;\n\nimport \"./ACoin.sol\";\nimport \"./NCoin.sol\";\n\ncontract OrderBook {\n    ACoin public acoin;\n    NCoin public ncoin;\n    address public owner;\n\n    enum Coin{A, N}\n    enum OrderType {Sell, Buy}\n\n    struct Order {\n        OrderType orderType;\n        uint256 exchange;\n        Coin fromCoin;\n        Coin toCoin;\n        address owner;\n    }\n\n    constructor(ACoin _acoin, NCoin _ncoin) public {\n        acoin = _acoin;\n        ncoin = _ncoin;\n        owner = msg.sender;\n    }\n}\n",
  "sourcePath": "/home/apo/work/innodex/src/contracts/OrderBook.sol",
  "compiler": {
    "name": "solc",
    "version": "0.5.16+commit.9c3226ce.Emscripten.clang"
  },
  "schemaVersion": "3.2.3",
  "updatedAt": "2021-05-11T07:14:20.432Z",
  "networkType": "ethereum",
  "devdoc": {
    "methods": {}
  },
  "userdoc": {
    "methods": {}
  }
}