{
  "contractName": "OrderBook",
  "abi": [
    {
      "inputs": [
        {
          "internalType": "contract ACoin",
          "name": "_acoin",
          "type": "address"
        },
        {
          "internalType": "contract NCoin",
          "name": "_ncoin",
          "type": "address"
        }
      ],
      "payable": false,
      "stateMutability": "nonpayable",
      "type": "constructor"
    },
    {
      "constant": true,
      "inputs": [
        {
          "internalType": "uint256",
          "name": "_id",
          "type": "uint256"
        }
      ],
      "name": "orderExist",
      "outputs": [
        {
          "internalType": "bool",
          "name": "",
          "type": "bool"
        }
      ],
      "payable": false,
      "stateMutability": "view",
      "type": "function"
    },
    {
      "constant": true,
      "inputs": [
        {
          "internalType": "uint256",
          "name": "_id",
          "type": "uint256"
        }
      ],
      "name": "getOrder",
      "outputs": [
        {
          "components": [
            {
              "internalType": "uint256",
              "name": "id",
              "type": "uint256"
            },
            {
              "internalType": "enum OrderBook.OrderType",
              "name": "orderType",
              "type": "uint8"
            },
            {
              "internalType": "uint256",
              "name": "exchange",
              "type": "uint256"
            },
            {
              "internalType": "uint256",
              "name": "amount",
              "type": "uint256"
            },
            {
              "internalType": "uint256",
              "name": "originalAmount",
              "type": "uint256"
            },
            {
              "internalType": "enum OrderBook.Coin",
              "name": "ownerGet",
              "type": "uint8"
            },
            {
              "internalType": "enum OrderBook.Coin",
              "name": "buyerGet",
              "type": "uint8"
            },
            {
              "internalType": "address",
              "name": "owner",
              "type": "address"
            },
            {
              "internalType": "bool",
              "name": "isClosed",
              "type": "bool"
            }
          ],
          "internalType": "struct OrderBook.Order",
          "name": "",
          "type": "tuple"
        }
      ],
      "payable": false,
      "stateMutability": "view",
      "type": "function"
    },
    {
      "constant": true,
      "inputs": [],
      "name": "getOrders",
      "outputs": [
        {
          "components": [
            {
              "internalType": "uint256",
              "name": "id",
              "type": "uint256"
            },
            {
              "internalType": "enum OrderBook.OrderType",
              "name": "orderType",
              "type": "uint8"
            },
            {
              "internalType": "uint256",
              "name": "exchange",
              "type": "uint256"
            },
            {
              "internalType": "uint256",
              "name": "amount",
              "type": "uint256"
            },
            {
              "internalType": "uint256",
              "name": "originalAmount",
              "type": "uint256"
            },
            {
              "internalType": "enum OrderBook.Coin",
              "name": "ownerGet",
              "type": "uint8"
            },
            {
              "internalType": "enum OrderBook.Coin",
              "name": "buyerGet",
              "type": "uint8"
            },
            {
              "internalType": "address",
              "name": "owner",
              "type": "address"
            },
            {
              "internalType": "bool",
              "name": "isClosed",
              "type": "bool"
            }
          ],
          "internalType": "struct OrderBook.Order[]",
          "name": "",
          "type": "tuple[]"
        }
      ],
      "payable": false,
      "stateMutability": "view",
      "type": "function"
    },
    {
      "constant": false,
      "inputs": [
        {
          "internalType": "uint256",
          "name": "_id",
          "type": "uint256"
        },
        {
          "internalType": "enum OrderBook.OrderType",
          "name": "_orderType",
          "type": "uint8"
        },
        {
          "internalType": "uint256",
          "name": "_exchange",
          "type": "uint256"
        },
        {
          "internalType": "uint256",
          "name": "_amount",
          "type": "uint256"
        },
        {
          "internalType": "enum OrderBook.Coin",
          "name": "_ownerGet",
          "type": "uint8"
        },
        {
          "internalType": "enum OrderBook.Coin",
          "name": "_buyerGet",
          "type": "uint8"
        }
      ],
      "name": "addOrder",
      "outputs": [],
      "payable": true,
      "stateMutability": "payable",
      "type": "function"
    },
    {
      "constant": false,
      "inputs": [
        {
          "internalType": "uint256",
          "name": "_id",
          "type": "uint256"
        },
        {
          "internalType": "uint256",
          "name": "_amount",
          "type": "uint256"
        }
      ],
      "name": "completeOrder",
      "outputs": [],
      "payable": true,
      "stateMutability": "payable",
      "type": "function"
    },
    {
      "constant": false,
      "inputs": [
        {
          "internalType": "uint256",
          "name": "_id",
          "type": "uint256"
        }
      ],
      "name": "closeOrder",
      "outputs": [],
      "payable": true,
      "stateMutability": "payable",
      "type": "function"
    }
  ],
  "bytecode": "0x60806040523480156200001157600080fd5b5060405162001d2538038062001d2583398181016040526200003791908101906200012f565b816000806101000a81548173ffffffffffffffffffffffffffffffffffffffff021916908373ffffffffffffffffffffffffffffffffffffffff16021790555080600160006101000a81548173ffffffffffffffffffffffffffffffffffffffff021916908373ffffffffffffffffffffffffffffffffffffffff16021790555033600260006101000a81548173ffffffffffffffffffffffffffffffffffffffff021916908373ffffffffffffffffffffffffffffffffffffffff160217905550505062000200565b6000815190506200011281620001cc565b92915050565b6000815190506200012981620001e6565b92915050565b600080604083850312156200014357600080fd5b6000620001538582860162000101565b9250506020620001668582860162000118565b9150509250929050565b60006200017d82620001ac565b9050919050565b6000620001918262000170565b9050919050565b6000620001a58262000170565b9050919050565b600073ffffffffffffffffffffffffffffffffffffffff82169050919050565b620001d78162000184565b8114620001e357600080fd5b50565b620001f18162000198565b8114620001fd57600080fd5b50565b611b1580620002106000396000f3fe6080604052600436106100555760003560e01c8063069d6d1c1461005a5780632e2dc43e14610076578063b4ad5d67146100a1578063b729b287146100de578063c0d5d96f146100fa578063d09ef24114610116575b600080fd5b610074600480360361006f91908101906112b4565b610153565b005b34801561008257600080fd5b5061008b6102c5565b6040516100989190611800565b60405180910390f35b3480156100ad57600080fd5b506100c860048036036100c391908101906112b4565b610445565b6040516100d59190611822565b60405180910390f35b6100f860048036036100f39190810190611306565b6104a2565b005b610114600480360361010f919081019061138f565b610734565b005b34801561012257600080fd5b5061013d600480360361013891908101906112b4565b610e7a565b60405161014a91906118dd565b60405180910390f35b3073ffffffffffffffffffffffffffffffffffffffff1663b4ad5d67826040518263ffffffff1660e01b815260040161018c91906118f9565b60206040518083038186803b1580156101a457600080fd5b505afa1580156101b8573d6000803e3d6000fd5b505050506040513d601f19601f820116820180604052506101dc9190810190611261565b61021b576040517f08c379a00000000000000000000000000000000000000000000000000000000081526004016102129061183d565b60405180910390fd5b610223611058565b3073ffffffffffffffffffffffffffffffffffffffff1663d09ef241836040518263ffffffff1660e01b815260040161025c91906118f9565b6101206040518083038186803b15801561027557600080fd5b505afa158015610289573d6000803e3d6000fd5b505050506040513d601f19601f820116820180604052506102ad919081019061128a565b90506001816101000190151590811515815250505050565b60606003805480602002602001604051908101604052809291908181526020016000905b8282101561043c578382906000526020600020906006020160405180610120016040529081600082015481526020016001820160009054906101000a900460ff16600181111561033557fe5b600181111561034057fe5b81526020016002820154815260200160038201548152602001600482015481526020016005820160009054906101000a900460ff16600181111561038057fe5b600181111561038b57fe5b81526020016005820160019054906101000a900460ff1660018111156103ad57fe5b60018111156103b857fe5b81526020016005820160029054906101000a900473ffffffffffffffffffffffffffffffffffffffff1673ffffffffffffffffffffffffffffffffffffffff1673ffffffffffffffffffffffffffffffffffffffff1681526020016005820160169054906101000a900460ff161515151581525050815260200190600101906102e9565b50505050905090565b600080600090505b60038054905081101561049757826003828154811061046857fe5b906000526020600020906006020160000154141561048a57600191505061049d565b808060010191505061044d565b50600090505b919050565b3073ffffffffffffffffffffffffffffffffffffffff1663b4ad5d67876040518263ffffffff1660e01b81526004016104db91906118f9565b60206040518083038186803b1580156104f357600080fd5b505afa158015610507573d6000803e3d6000fd5b505050506040513d601f19601f8201168201806040525061052b9190810190611261565b1561056b576040517f08c379a00000000000000000000000000000000000000000000000000000000081526004016105629061185d565b60405180910390fd5b610573611058565b60405180610120016040528088815260200187600181111561059157fe5b81526020018681526020018581526020018581526020018460018111156105b457fe5b81526020018360018111156105c557fe5b81526020013373ffffffffffffffffffffffffffffffffffffffff168152602001600015158152509050600381908060018154018082558091505090600182039060005260206000209060060201600090919290919091506000820151816000015560208201518160010160006101000a81548160ff0219169083600181111561064b57fe5b021790555060408201518160020155606082015181600301556080820151816004015560a08201518160050160006101000a81548160ff0219169083600181111561069257fe5b021790555060c08201518160050160016101000a81548160ff021916908360018111156106bb57fe5b021790555060e08201518160050160026101000a81548173ffffffffffffffffffffffffffffffffffffffff021916908373ffffffffffffffffffffffffffffffffffffffff1602179055506101008201518160050160166101000a81548160ff02191690831515021790555050505050505050505050565b3073ffffffffffffffffffffffffffffffffffffffff1663b4ad5d67836040518263ffffffff1660e01b815260040161076d91906118f9565b60206040518083038186803b15801561078557600080fd5b505afa158015610799573d6000803e3d6000fd5b505050506040513d601f19601f820116820180604052506107bd9190810190611261565b6107fc576040517f08c379a00000000000000000000000000000000000000000000000000000000081526004016107f39061183d565b60405180910390fd5b610804611058565b3073ffffffffffffffffffffffffffffffffffffffff1663d09ef241846040518263ffffffff1660e01b815260040161083d91906118f9565b6101206040518083038186803b15801561085657600080fd5b505afa15801561086a573d6000803e3d6000fd5b505050506040513d601f19601f8201168201806040525061088e919081019061128a565b9050806101000151156108d6576040517f08c379a00000000000000000000000000000000000000000000000000000000081526004016108cd9061187d565b60405180910390fd5b818160600151101561091d576040517f08c379a00000000000000000000000000000000000000000000000000000000081526004016109149061189d565b60405180910390fd5b6000816040015183029050600080600181111561093657fe5b8360c00151600181111561094657fe5b146109fb57600160009054906101000a900473ffffffffffffffffffffffffffffffffffffffff1673ffffffffffffffffffffffffffffffffffffffff166370a08231336040518263ffffffff1660e01b81526004016109a69190611777565b60206040518083038186803b1580156109be57600080fd5b505afa1580156109d2573d6000803e3d6000fd5b505050506040513d601f19601f820116820180604052506109f691908101906112dd565b610aa6565b6000809054906101000a900473ffffffffffffffffffffffffffffffffffffffff1673ffffffffffffffffffffffffffffffffffffffff166370a08231336040518263ffffffff1660e01b8152600401610a559190611777565b60206040518083038186803b158015610a6d57600080fd5b505afa158015610a81573d6000803e3d6000fd5b505050506040513d601f19601f82011682018060405250610aa591908101906112dd565b5b905080821115610aeb576040517f08c379a0000000000000000000000000000000000000000000000000000000008152600401610ae2906118bd565b60405180910390fd5b8383606001818151039150818152505060006001811115610b0857fe5b8360c001516001811115610b1857fe5b1415610c8e576000809054906101000a900473ffffffffffffffffffffffffffffffffffffffff1673ffffffffffffffffffffffffffffffffffffffff166323b872dd8460e0015133876040518463ffffffff1660e01b8152600401610b80939291906117c9565b602060405180830381600087803b158015610b9a57600080fd5b505af1158015610bae573d6000803e3d6000fd5b505050506040513d601f19601f82011682018060405250610bd29190810190611261565b50600160009054906101000a900473ffffffffffffffffffffffffffffffffffffffff1673ffffffffffffffffffffffffffffffffffffffff166323b872dd338560e00151856040518463ffffffff1660e01b8152600401610c3693929190611792565b602060405180830381600087803b158015610c5057600080fd5b505af1158015610c64573d6000803e3d6000fd5b505050506040513d601f19601f82011682018060405250610c889190810190611261565b50610dfa565b600160009054906101000a900473ffffffffffffffffffffffffffffffffffffffff1673ffffffffffffffffffffffffffffffffffffffff166323b872dd8460e0015133876040518463ffffffff1660e01b8152600401610cf1939291906117c9565b602060405180830381600087803b158015610d0b57600080fd5b505af1158015610d1f573d6000803e3d6000fd5b505050506040513d601f19601f82011682018060405250610d439190810190611261565b506000809054906101000a900473ffffffffffffffffffffffffffffffffffffffff1673ffffffffffffffffffffffffffffffffffffffff166323b872dd338560e00151856040518463ffffffff1660e01b8152600401610da693929190611792565b602060405180830381600087803b158015610dc057600080fd5b505af1158015610dd4573d6000803e3d6000fd5b505050506040513d601f19601f82011682018060405250610df89190810190611261565b505b600083606001511415610e73573073ffffffffffffffffffffffffffffffffffffffff1663069d6d1c866040518263ffffffff1660e01b8152600401610e4091906118f9565b600060405180830381600087803b158015610e5a57600080fd5b505af1158015610e6e573d6000803e3d6000fd5b505050505b5050505050565b610e82611058565b60008090505b600380549050811015611017578260038281548110610ea357fe5b906000526020600020906006020160000154141561100a5760038181548110610ec857fe5b906000526020600020906006020160405180610120016040529081600082015481526020016001820160009054906101000a900460ff166001811115610f0a57fe5b6001811115610f1557fe5b81526020016002820154815260200160038201548152602001600482015481526020016005820160009054906101000a900460ff166001811115610f5557fe5b6001811115610f6057fe5b81526020016005820160019054906101000a900460ff166001811115610f8257fe5b6001811115610f8d57fe5b81526020016005820160029054906101000a900473ffffffffffffffffffffffffffffffffffffffff1673ffffffffffffffffffffffffffffffffffffffff1673ffffffffffffffffffffffffffffffffffffffff1681526020016005820160169054906101000a900460ff161515151581525050915050611053565b8080600101915050610e88565b506040517f08c379a000000000000000000000000000000000000000000000000000000000815260040161104a9061183d565b60405180910390fd5b919050565b604051806101200160405280600081526020016000600181111561107857fe5b81526020016000815260200160008152602001600081526020016000600181111561109f57fe5b8152602001600060018111156110b157fe5b8152602001600073ffffffffffffffffffffffffffffffffffffffff1681526020016000151581525090565b6000815190506110ec81611a6d565b92915050565b60008151905061110181611a84565b92915050565b60008135905061111681611a9b565b92915050565b60008151905061112b81611a9b565b92915050565b60008135905061114081611aab565b92915050565b60008151905061115581611aab565b92915050565b6000610120828403121561116e57600080fd5b611179610120611914565b905060006111898482850161124c565b600083015250602061119d84828501611146565b60208301525060406111b18482850161124c565b60408301525060606111c58482850161124c565b60608301525060806111d98482850161124c565b60808301525060a06111ed8482850161111c565b60a08301525060c06112018482850161111c565b60c08301525060e0611215848285016110dd565b60e08301525061010061122a848285016110f2565b6101008301525092915050565b60008135905061124681611abb565b92915050565b60008151905061125b81611abb565b92915050565b60006020828403121561127357600080fd5b6000611281848285016110f2565b91505092915050565b6000610120828403121561129d57600080fd5b60006112ab8482850161115b565b91505092915050565b6000602082840312156112c657600080fd5b60006112d484828501611237565b91505092915050565b6000602082840312156112ef57600080fd5b60006112fd8482850161124c565b91505092915050565b60008060008060008060c0878903121561131f57600080fd5b600061132d89828a01611237565b965050602061133e89828a01611131565b955050604061134f89828a01611237565b945050606061136089828a01611237565b935050608061137189828a01611107565b92505060a061138289828a01611107565b9150509295509295509295565b600080604083850312156113a257600080fd5b60006113b085828601611237565b92505060206113c185828601611237565b9150509250929050565b60006113d783836116a2565b6101208301905092915050565b6113ed816119f9565b82525050565b6113fc8161198b565b82525050565b61140b8161198b565b82525050565b600061141c82611951565b6114268185611969565b935061143183611941565b8060005b8381101561146257815161144988826113cb565b97506114548361195c565b925050600181019050611435565b5085935050505092915050565b6114788161199d565b82525050565b6114878161199d565b82525050565b61149681611a0b565b82525050565b6114a581611a1d565b82525050565b60006114b860138361197a565b91507f6f72646572206964206e6f7420657869737421000000000000000000000000006000830152602082019050919050565b60006114f8600f8361197a565b91507f6f726465722069642065786973742100000000000000000000000000000000006000830152602082019050919050565b600061153860158361197a565b91507f6f7264657220616c726561647920636c6f7365642100000000000000000000006000830152602082019050919050565b6000611578601a8361197a565b91507f6e6f7420656e6f75676820636f696e7320696e206f72646572210000000000006000830152602082019050919050565b60006115b8601b8361197a565b91507f6e6f7420656e6f7567687420636f696e7320696e2062757965722100000000006000830152602082019050919050565b610120820160008201516116026000850182611759565b506020820151611615602085018261149c565b5060408201516116286040850182611759565b50606082015161163b6060850182611759565b50608082015161164e6080850182611759565b5060a082015161166160a085018261148d565b5060c082015161167460c085018261148d565b5060e082015161168760e08501826113f3565b5061010082015161169c61010085018261146f565b50505050565b610120820160008201516116b96000850182611759565b5060208201516116cc602085018261149c565b5060408201516116df6040850182611759565b5060608201516116f26060850182611759565b5060808201516117056080850182611759565b5060a082015161171860a085018261148d565b5060c082015161172b60c085018261148d565b5060e082015161173e60e08501826113f3565b5061010082015161175361010085018261146f565b50505050565b611762816119ef565b82525050565b611771816119ef565b82525050565b600060208201905061178c60008301846113e4565b92915050565b60006060820190506117a760008301866113e4565b6117b46020830185611402565b6117c16040830184611768565b949350505050565b60006060820190506117de6000830186611402565b6117eb60208301856113e4565b6117f86040830184611768565b949350505050565b6000602082019050818103600083015261181a8184611411565b905092915050565b6000602082019050611837600083018461147e565b92915050565b60006020820190508181036000830152611856816114ab565b9050919050565b60006020820190508181036000830152611876816114eb565b9050919050565b600060208201905081810360008301526118968161152b565b9050919050565b600060208201905081810360008301526118b68161156b565b9050919050565b600060208201905081810360008301526118d6816115ab565b9050919050565b6000610120820190506118f360008301846115eb565b92915050565b600060208201905061190e6000830184611768565b92915050565b6000604051905081810181811067ffffffffffffffff8211171561193757600080fd5b8060405250919050565b6000819050602082019050919050565b600081519050919050565b6000602082019050919050565b600082825260208201905092915050565b600082825260208201905092915050565b6000611996826119cf565b9050919050565b60008115159050919050565b60008190506119b782611a53565b919050565b60008190506119ca82611a60565b919050565b600073ffffffffffffffffffffffffffffffffffffffff82169050919050565b6000819050919050565b6000611a0482611a2f565b9050919050565b6000611a16826119a9565b9050919050565b6000611a28826119bc565b9050919050565b6000611a3a82611a41565b9050919050565b6000611a4c826119cf565b9050919050565b60028110611a5d57fe5b50565b60028110611a6a57fe5b50565b611a768161198b565b8114611a8157600080fd5b50565b611a8d8161199d565b8114611a9857600080fd5b50565b60028110611aa857600080fd5b50565b60028110611ab857600080fd5b50565b611ac4816119ef565b8114611acf57600080fd5b5056fea365627a7a723158204760cbdcf8aaf53b92cc6ec2fc1cea1e060eea77a7212a2bfa7b7dd8da92c6836c6578706572696d656e74616cf564736f6c63430005100040",
  "source": "pragma solidity ^0.5.0;\npragma experimental ABIEncoderV2;\n\nimport \"./ACoin.sol\";\nimport \"./NCoin.sol\";\n\ncontract OrderBook {\n    ACoin acoin;\n    NCoin ncoin;\n    address owner;\n\n    enum Coin{A, N}\n    enum OrderType {Sell, Buy}\n\n    struct Order {\n        uint256 id;\n        OrderType orderType;\n        uint256 exchange;\n        uint256 amount;\n        uint256 originalAmount;\n        Coin ownerGet;\n        Coin buyerGet;\n        address owner;\n        bool isClosed;\n    }\n\n    Order[] orders;\n    constructor(ACoin _acoin, NCoin _ncoin) public {\n        acoin = _acoin;\n        ncoin = _ncoin;\n        owner = msg.sender;\n    }\n\n    function orderExist(uint256 _id) external view returns (bool)\n    {\n        for (uint256 i = 0; i < orders.length; i++) {\n            if (orders[i].id == _id) {\n                return true;\n            }\n        }\n        return false;\n    }\n\n    function getOrder(uint256 _id) external view returns (Order memory) {\n        for (uint256 i = 0; i < orders.length; i++) {\n            if (orders[i].id == _id) {\n                return orders[i];\n            }\n        }\n\n        revert(\"order id not exist!\");\n    }\n\n    function getOrders() external view returns (Order[] memory) {\n        return orders;\n    }\n\n    function addOrder(uint256 _id, OrderType _orderType, uint256 _exchange, uint256 _amount, Coin _ownerGet, Coin _buyerGet) external payable {\n        require(!this.orderExist(_id), \"order id exist!\");\n        Order memory order =\n            Order({\n                id: _id,\n                orderType: _orderType,\n                exchange: _exchange,\n                amount: _amount,\n                originalAmount: _amount,\n                ownerGet: _ownerGet,\n                buyerGet: _buyerGet,\n                owner: msg.sender,\n                isClosed: false\n            });\n        orders.push(order);\n    }\n\n    function completeOrder(uint256 _id, uint256 _amount) external payable {\n        require(this.orderExist(_id), \"order id not exist!\");\n\n        Order memory order = this.getOrder(_id);\n        require(!order.isClosed, \"order already closed!\");\n        require(order.amount >= _amount, \"not enough coins in order!\");\n\n        uint256 price = _amount * order.exchange;\n        uint256 wallet = order.buyerGet == Coin.A ? acoin.balanceOf(msg.sender) : ncoin.balanceOf(msg.sender);\n        require(price <= wallet, \"not enought coins in buyer!\");\n\n        order.amount -= _amount;\n        if(order.buyerGet == Coin.A)\n        {\n            acoin.transferFrom(order.owner, msg.sender, _amount);\n            ncoin.transferFrom(msg.sender, order.owner, price);\n        }\n        else\n        {\n            ncoin.transferFrom(order.owner, msg.sender, _amount);\n            acoin.transferFrom(msg.sender, order.owner, price);\n        }\n\n        if(order.amount == 0)\n        {\n            this.closeOrder(_id);\n        }\n    }\n\n    function closeOrder(uint256 _id) external payable{\n        require(this.orderExist(_id), \"order id not exist!\");\n        Order memory order = this.getOrder(_id);\n        order.isClosed = true;\n    }\n}\n",
  "sourcePath": "/home/apo/work/innodex/src/contracts/OrderBook.sol",
  "compiler": {
    "name": "solc",
    "version": "0.5.16+commit.9c3226ce.Emscripten.clang"
  },
  "schemaVersion": "3.2.3",
  "updatedAt": "2021-05-11T09:47:58.891Z",
  "networkType": "ethereum",
  "devdoc": {
    "methods": {}
  },
  "userdoc": {
    "methods": {}
  }
}