{
  "contractName": "OrderBook",
  "abi": [
    {
      "inputs": [
        {
          "internalType": "contract ACoin",
          "name": "_acoin",
          "type": "address"
        },
        {
          "internalType": "contract NCoin",
          "name": "_ncoin",
          "type": "address"
        }
      ],
      "payable": false,
      "stateMutability": "nonpayable",
      "type": "constructor"
    },
    {
      "constant": true,
      "inputs": [
        {
          "internalType": "uint256",
          "name": "_id",
          "type": "uint256"
        }
      ],
      "name": "orderExist",
      "outputs": [
        {
          "internalType": "bool",
          "name": "",
          "type": "bool"
        }
      ],
      "payable": false,
      "stateMutability": "view",
      "type": "function"
    },
    {
      "constant": true,
      "inputs": [
        {
          "internalType": "uint256",
          "name": "_id",
          "type": "uint256"
        }
      ],
      "name": "getOrder",
      "outputs": [
        {
          "components": [
            {
              "internalType": "uint256",
              "name": "id",
              "type": "uint256"
            },
            {
              "internalType": "enum OrderBook.OrderType",
              "name": "orderType",
              "type": "uint8"
            },
            {
              "internalType": "uint256",
              "name": "priceOfOne",
              "type": "uint256"
            },
            {
              "internalType": "uint256",
              "name": "amount",
              "type": "uint256"
            },
            {
              "internalType": "uint256",
              "name": "originalAmount",
              "type": "uint256"
            },
            {
              "internalType": "enum OrderBook.Coin",
              "name": "ownerHave",
              "type": "uint8"
            },
            {
              "internalType": "address",
              "name": "owner",
              "type": "address"
            },
            {
              "internalType": "bool",
              "name": "isClosed",
              "type": "bool"
            }
          ],
          "internalType": "struct OrderBook.Order",
          "name": "",
          "type": "tuple"
        }
      ],
      "payable": false,
      "stateMutability": "view",
      "type": "function"
    },
    {
      "constant": true,
      "inputs": [],
      "name": "getOrders",
      "outputs": [
        {
          "components": [
            {
              "internalType": "uint256",
              "name": "id",
              "type": "uint256"
            },
            {
              "internalType": "enum OrderBook.OrderType",
              "name": "orderType",
              "type": "uint8"
            },
            {
              "internalType": "uint256",
              "name": "priceOfOne",
              "type": "uint256"
            },
            {
              "internalType": "uint256",
              "name": "amount",
              "type": "uint256"
            },
            {
              "internalType": "uint256",
              "name": "originalAmount",
              "type": "uint256"
            },
            {
              "internalType": "enum OrderBook.Coin",
              "name": "ownerHave",
              "type": "uint8"
            },
            {
              "internalType": "address",
              "name": "owner",
              "type": "address"
            },
            {
              "internalType": "bool",
              "name": "isClosed",
              "type": "bool"
            }
          ],
          "internalType": "struct OrderBook.Order[]",
          "name": "",
          "type": "tuple[]"
        }
      ],
      "payable": false,
      "stateMutability": "view",
      "type": "function"
    },
    {
      "constant": false,
      "inputs": [
        {
          "internalType": "uint256",
          "name": "_id",
          "type": "uint256"
        },
        {
          "internalType": "enum OrderBook.OrderType",
          "name": "_orderType",
          "type": "uint8"
        },
        {
          "internalType": "uint256",
          "name": "_priceOfOne",
          "type": "uint256"
        },
        {
          "internalType": "uint256",
          "name": "_amount",
          "type": "uint256"
        },
        {
          "internalType": "enum OrderBook.Coin",
          "name": "_ownerHave",
          "type": "uint8"
        }
      ],
      "name": "addOrder",
      "outputs": [],
      "payable": true,
      "stateMutability": "payable",
      "type": "function"
    },
    {
      "constant": false,
      "inputs": [
        {
          "internalType": "uint256",
          "name": "_id",
          "type": "uint256"
        },
        {
          "internalType": "uint256",
          "name": "_amount",
          "type": "uint256"
        }
      ],
      "name": "completeOrder",
      "outputs": [],
      "payable": true,
      "stateMutability": "payable",
      "type": "function"
    }
  ],
  "bytecode": "0x60806040523480156200001157600080fd5b50604051620018583803806200185883398181016040526200003791908101906200012f565b816000806101000a81548173ffffffffffffffffffffffffffffffffffffffff021916908373ffffffffffffffffffffffffffffffffffffffff16021790555080600160006101000a81548173ffffffffffffffffffffffffffffffffffffffff021916908373ffffffffffffffffffffffffffffffffffffffff16021790555033600260006101000a81548173ffffffffffffffffffffffffffffffffffffffff021916908373ffffffffffffffffffffffffffffffffffffffff160217905550505062000200565b6000815190506200011281620001cc565b92915050565b6000815190506200012981620001e6565b92915050565b600080604083850312156200014357600080fd5b6000620001538582860162000101565b9250506020620001668582860162000118565b9150509250929050565b60006200017d82620001ac565b9050919050565b6000620001918262000170565b9050919050565b6000620001a58262000170565b9050919050565b600073ffffffffffffffffffffffffffffffffffffffff82169050919050565b620001d78162000184565b8114620001e357600080fd5b50565b620001f18162000198565b8114620001fd57600080fd5b50565b61164880620002106000396000f3fe60806040526004361061004a5760003560e01c80632e2dc43e1461004f578063759e3af71461007a578063b4ad5d6714610096578063c0d5d96f146100d3578063d09ef241146100ef575b600080fd5b34801561005b57600080fd5b5061006461012c565b6040516100719190611377565b60405180910390f35b610094600480360361008f9190810190610ed5565b61027f565b005b3480156100a257600080fd5b506100bd60048036036100b89190810190610e83565b6104d5565b6040516100ca9190611399565b60405180910390f35b6100ed60048036036100e89190810190610f4c565b610532565b005b3480156100fb57600080fd5b5061011660048036036101119190810190610e83565b610bcd565b6040516101239190611454565b60405180910390f35b60606003805480602002602001604051908101604052809291908181526020016000905b82821015610276578382906000526020600020906006020160405180610100016040529081600082015481526020016001820160009054906101000a900460ff16600181111561019c57fe5b60018111156101a757fe5b81526020016002820154815260200160038201548152602001600482015481526020016005820160009054906101000a900460ff1660018111156101e757fe5b60018111156101f257fe5b81526020016005820160019054906101000a900473ffffffffffffffffffffffffffffffffffffffff1673ffffffffffffffffffffffffffffffffffffffff1673ffffffffffffffffffffffffffffffffffffffff1681526020016005820160159054906101000a900460ff16151515158152505081526020019060010190610150565b50505050905090565b3073ffffffffffffffffffffffffffffffffffffffff1663b4ad5d67866040518263ffffffff1660e01b81526004016102b89190611470565b60206040518083038186803b1580156102d057600080fd5b505afa1580156102e4573d6000803e3d6000fd5b505050506040513d601f19601f820116820180604052506103089190810190610e5a565b15610348576040517f08c379a000000000000000000000000000000000000000000000000000000000815260040161033f906113d4565b60405180910390fd5b610350610d7e565b60405180610100016040528087815260200186600181111561036e57fe5b815260200185815260200184815260200184815260200183600181111561039157fe5b81526020013373ffffffffffffffffffffffffffffffffffffffff168152602001600015158152509050600381908060018154018082558091505090600182039060005260206000209060060201600090919290919091506000820151816000015560208201518160010160006101000a81548160ff0219169083600181111561041757fe5b021790555060408201518160020155606082015181600301556080820151816004015560a08201518160050160006101000a81548160ff0219169083600181111561045e57fe5b021790555060c08201518160050160016101000a81548173ffffffffffffffffffffffffffffffffffffffff021916908373ffffffffffffffffffffffffffffffffffffffff16021790555060e08201518160050160156101000a81548160ff021916908315150217905550505050505050505050565b600080600090505b6003805490508110156105275782600382815481106104f857fe5b906000526020600020906006020160000154141561051a57600191505061052d565b80806001019150506104dd565b50600090505b919050565b60008090505b600380549050811015610b8d57826003828154811061055357fe5b9060005260206000209060060201600001541415610b805760006003828154811061057a57fe5b906000526020600020906006020190508060050160159054906101000a900460ff16156105dc576040517f08c379a00000000000000000000000000000000000000000000000000000000081526004016105d3906113f4565b60405180910390fd5b8281600301541015610623576040517f08c379a000000000000000000000000000000000000000000000000000000000815260040161061a90611414565b60405180910390fd5b6000816002015484029050600060018081111561063c57fe5b8360050160009054906101000a900460ff16600181111561065957fe5b1461070e57600160009054906101000a900473ffffffffffffffffffffffffffffffffffffffff1673ffffffffffffffffffffffffffffffffffffffff166370a08231336040518263ffffffff1660e01b81526004016106b9919061130a565b60206040518083038186803b1580156106d157600080fd5b505afa1580156106e5573d6000803e3d6000fd5b505050506040513d601f19601f820116820180604052506107099190810190610eac565b6107b9565b6000809054906101000a900473ffffffffffffffffffffffffffffffffffffffff1673ffffffffffffffffffffffffffffffffffffffff166370a08231336040518263ffffffff1660e01b8152600401610768919061130a565b60206040518083038186803b15801561078057600080fd5b505afa158015610794573d6000803e3d6000fd5b505050506040513d601f19601f820116820180604052506107b89190810190610eac565b5b9050808211156107fe576040517f08c379a00000000000000000000000000000000000000000000000000000000081526004016107f590611434565b60405180910390fd5b6000600181111561080b57fe5b8360050160009054906101000a900460ff16600181111561082857fe5b14156109b6576000809054906101000a900473ffffffffffffffffffffffffffffffffffffffff1673ffffffffffffffffffffffffffffffffffffffff1663a9059cbb33876040518363ffffffff1660e01b815260040161088a929190611325565b602060405180830381600087803b1580156108a457600080fd5b505af11580156108b8573d6000803e3d6000fd5b505050506040513d601f19601f820116820180604052506108dc9190810190610e5a565b50600160009054906101000a900473ffffffffffffffffffffffffffffffffffffffff1673ffffffffffffffffffffffffffffffffffffffff1663a9059cbb8460050160019054906101000a900473ffffffffffffffffffffffffffffffffffffffff16846040518363ffffffff1660e01b815260040161095e92919061134e565b602060405180830381600087803b15801561097857600080fd5b505af115801561098c573d6000803e3d6000fd5b505050506040513d601f19601f820116820180604052506109b09190810190610e5a565b50610b3a565b600160009054906101000a900473ffffffffffffffffffffffffffffffffffffffff1673ffffffffffffffffffffffffffffffffffffffff1663a9059cbb33876040518363ffffffff1660e01b8152600401610a13929190611325565b602060405180830381600087803b158015610a2d57600080fd5b505af1158015610a41573d6000803e3d6000fd5b505050506040513d601f19601f82011682018060405250610a659190810190610e5a565b506000809054906101000a900473ffffffffffffffffffffffffffffffffffffffff1673ffffffffffffffffffffffffffffffffffffffff1663a9059cbb8460050160019054906101000a900473ffffffffffffffffffffffffffffffffffffffff16846040518363ffffffff1660e01b8152600401610ae692919061134e565b602060405180830381600087803b158015610b0057600080fd5b505af1158015610b14573d6000803e3d6000fd5b505050506040513d601f19601f82011682018060405250610b389190810190610e5a565b505b848360030160008282540392505081905550600083600301541415610b775760018360050160156101000a81548160ff0219169083151502179055505b50505050610bc9565b8080600101915050610538565b506040517f08c379a0000000000000000000000000000000000000000000000000000000008152600401610bc0906113b4565b60405180910390fd5b5050565b610bd5610d7e565b60008090505b600380549050811015610d3d578260038281548110610bf657fe5b9060005260206000209060060201600001541415610d305760038181548110610c1b57fe5b906000526020600020906006020160405180610100016040529081600082015481526020016001820160009054906101000a900460ff166001811115610c5d57fe5b6001811115610c6857fe5b81526020016002820154815260200160038201548152602001600482015481526020016005820160009054906101000a900460ff166001811115610ca857fe5b6001811115610cb357fe5b81526020016005820160019054906101000a900473ffffffffffffffffffffffffffffffffffffffff1673ffffffffffffffffffffffffffffffffffffffff1673ffffffffffffffffffffffffffffffffffffffff1681526020016005820160159054906101000a900460ff161515151581525050915050610d79565b8080600101915050610bdb565b506040517f08c379a0000000000000000000000000000000000000000000000000000000008152600401610d70906113b4565b60405180910390fd5b919050565b6040518061010001604052806000815260200160006001811115610d9e57fe5b815260200160008152602001600081526020016000815260200160006001811115610dc557fe5b8152602001600073ffffffffffffffffffffffffffffffffffffffff1681526020016000151581525090565b600081519050610e00816115b7565b92915050565b600081359050610e15816115ce565b92915050565b600081359050610e2a816115de565b92915050565b600081359050610e3f816115ee565b92915050565b600081519050610e54816115ee565b92915050565b600060208284031215610e6c57600080fd5b6000610e7a84828501610df1565b91505092915050565b600060208284031215610e9557600080fd5b6000610ea384828501610e30565b91505092915050565b600060208284031215610ebe57600080fd5b6000610ecc84828501610e45565b91505092915050565b600080600080600060a08688031215610eed57600080fd5b6000610efb88828901610e30565b9550506020610f0c88828901610e1b565b9450506040610f1d88828901610e30565b9350506060610f2e88828901610e30565b9250506080610f3f88828901610e06565b9150509295509295909350565b60008060408385031215610f5f57600080fd5b6000610f6d85828601610e30565b9250506020610f7e85828601610e30565b9150509250929050565b6000610f94838361124a565b6101008301905092915050565b610faa81611543565b82525050565b610fb9816114d5565b82525050565b610fc8816114d5565b82525050565b6000610fd98261149b565b610fe381856114b3565b9350610fee8361148b565b8060005b8381101561101f5781516110068882610f88565b9750611011836114a6565b925050600181019050610ff2565b5085935050505092915050565b611035816114e7565b82525050565b611044816114e7565b82525050565b61105381611555565b82525050565b61106281611567565b82525050565b60006110756013836114c4565b91507f6f72646572206964206e6f7420657869737421000000000000000000000000006000830152602082019050919050565b60006110b5600f836114c4565b91507f6f726465722069642065786973742100000000000000000000000000000000006000830152602082019050919050565b60006110f56015836114c4565b91507f6f7264657220616c726561647920636c6f7365642100000000000000000000006000830152602082019050919050565b6000611135601a836114c4565b91507f6e6f7420656e6f75676820636f696e7320696e206f72646572210000000000006000830152602082019050919050565b6000611175601b836114c4565b91507f6e6f7420656e6f7567687420636f696e7320696e2062757965722100000000006000830152602082019050919050565b610100820160008201516111bf60008501826112ec565b5060208201516111d26020850182611059565b5060408201516111e560408501826112ec565b5060608201516111f860608501826112ec565b50608082015161120b60808501826112ec565b5060a082015161121e60a085018261104a565b5060c082015161123160c0850182610fb0565b5060e082015161124460e085018261102c565b50505050565b6101008201600082015161126160008501826112ec565b5060208201516112746020850182611059565b50604082015161128760408501826112ec565b50606082015161129a60608501826112ec565b5060808201516112ad60808501826112ec565b5060a08201516112c060a085018261104a565b5060c08201516112d360c0850182610fb0565b5060e08201516112e660e085018261102c565b50505050565b6112f581611539565b82525050565b61130481611539565b82525050565b600060208201905061131f6000830184610fa1565b92915050565b600060408201905061133a6000830185610fa1565b61134760208301846112fb565b9392505050565b60006040820190506113636000830185610fbf565b61137060208301846112fb565b9392505050565b600060208201905081810360008301526113918184610fce565b905092915050565b60006020820190506113ae600083018461103b565b92915050565b600060208201905081810360008301526113cd81611068565b9050919050565b600060208201905081810360008301526113ed816110a8565b9050919050565b6000602082019050818103600083015261140d816110e8565b9050919050565b6000602082019050818103600083015261142d81611128565b9050919050565b6000602082019050818103600083015261144d81611168565b9050919050565b60006101008201905061146a60008301846111a8565b92915050565b600060208201905061148560008301846112fb565b92915050565b6000819050602082019050919050565b600081519050919050565b6000602082019050919050565b600082825260208201905092915050565b600082825260208201905092915050565b60006114e082611519565b9050919050565b60008115159050919050565b60008190506115018261159d565b919050565b6000819050611514826115aa565b919050565b600073ffffffffffffffffffffffffffffffffffffffff82169050919050565b6000819050919050565b600061154e82611579565b9050919050565b6000611560826114f3565b9050919050565b600061157282611506565b9050919050565b60006115848261158b565b9050919050565b600061159682611519565b9050919050565b600281106115a757fe5b50565b600281106115b457fe5b50565b6115c0816114e7565b81146115cb57600080fd5b50565b600281106115db57600080fd5b50565b600281106115eb57600080fd5b50565b6115f781611539565b811461160257600080fd5b5056fea365627a7a72315820ff81b126dd270279193346cd0b23dc94165ca8db56697b1a97b0fa09c0feb1cb6c6578706572696d656e74616cf564736f6c63430005100040",
  "source": "pragma solidity ^0.5.0;\npragma experimental ABIEncoderV2;\n\nimport \"./ACoin.sol\";\nimport \"./NCoin.sol\";\n\ncontract OrderBook {\n    ACoin acoin;\n    NCoin ncoin;\n    address owner;\n\n    enum Coin{A, N}\n    enum OrderType {Sell, Buy}\n\n    struct Order {\n        uint256 id;\n        OrderType orderType;\n        uint256 priceOfOne;\n        uint256 amount;\n        uint256 originalAmount;\n        Coin ownerHave;\n        address owner;\n        bool isClosed;\n    }\n\n    Order[] orders;\n    constructor(ACoin _acoin, NCoin _ncoin) public {\n        acoin = _acoin;\n        ncoin = _ncoin;\n        owner = msg.sender;\n    }\n\n    function orderExist(uint256 _id) external view returns (bool)\n    {\n        for (uint256 i = 0; i < orders.length; i++) {\n            if (orders[i].id == _id) {\n                return true;\n            }\n        }\n        return false;\n    }\n\n    function getOrder(uint256 _id) external view returns (Order memory) {\n        for (uint256 i = 0; i < orders.length; i++) {\n            if (orders[i].id == _id) {\n                return orders[i];\n            }\n        }\n\n        revert(\"order id not exist!\");\n    }\n\n    function getOrders() external view returns (Order[] memory) {\n        return orders;\n    }\n\n    function addOrder(uint256 _id, OrderType _orderType, uint256 _priceOfOne, uint256 _amount, Coin _ownerHave) external payable {\n        require(!this.orderExist(_id), \"order id exist!\");\n        Order memory order =\n            Order({\n                id: _id,\n                orderType: _orderType,\n                priceOfOne: _priceOfOne,\n                amount: _amount,\n                originalAmount: _amount,\n                ownerHave: _ownerHave,\n                owner: msg.sender,\n                isClosed: false\n            });\n        \n        orders.push(order);\n    }\n\n    function completeOrder(uint256 _id, uint256 _amount) external payable {\n        for (uint256 i = 0; i < orders.length; i++) {\n            if (orders[i].id == _id) {\n                Order storage order = orders[i];\n                require(!order.isClosed, \"order already closed!\");\n                require(order.amount >= _amount, \"not enough coins in order!\");\n\n                uint256 price = _amount * order.priceOfOne;\n                uint256 wallet = order.ownerHave == Coin.N ? acoin.balanceOf(msg.sender) : ncoin.balanceOf(msg.sender);\n                require(price <= wallet, \"not enought coins in buyer!\");\n\n                if(order.ownerHave == Coin.A)\n                {\n                    acoin.transfer(msg.sender, _amount);\n            \n                    ncoin.transfer(order.owner, price);\n                }\n                else\n                {\n                    ncoin.transfer(msg.sender, _amount);\n            \n                    acoin.transfer(order.owner, price);\n                }\n        \n                order.amount -= _amount;\n                if(order.amount == 0)\n                {\n                    order.isClosed = true;\n                }\n                return;\n            }\n        }\n\n        revert(\"order id not exist!\");\n    }\n}\n",
  "sourcePath": "/Users/buldiga/Documents/study/innodex/src/contracts/OrderBook.sol",
  "compiler": {
    "name": "solc",
    "version": "0.5.16+commit.9c3226ce.Emscripten.clang"
  },
  "schemaVersion": "3.2.3",
  "updatedAt": "2021-05-11T18:01:13.667Z",
  "networkType": "ethereum",
  "devdoc": {
    "methods": {}
  },
  "userdoc": {
    "methods": {}
  }
}